{"abi":[{"type":"constructor","inputs":[],"stateMutability":"nonpayable"},{"type":"receive","stateMutability":"payable"},{"type":"function","name":"approve","inputs":[{"name":"to","type":"address","internalType":"address"},{"name":"tokenId","type":"uint256","internalType":"uint256"}],"outputs":[],"stateMutability":"nonpayable"},{"type":"function","name":"balanceOf","inputs":[{"name":"","type":"address","internalType":"address"}],"outputs":[{"name":"","type":"uint256","internalType":"uint256"}],"stateMutability":"view"},{"type":"function","name":"emergencyWithdraw","inputs":[],"outputs":[],"stateMutability":"nonpayable"},{"type":"function","name":"getApproved","inputs":[{"name":"tokenId","type":"uint256","internalType":"uint256"}],"outputs":[{"name":"","type":"address","internalType":"address"}],"stateMutability":"view"},{"type":"function","name":"getPowerupDetails","inputs":[{"name":"tokenId","type":"uint256","internalType":"uint256"}],"outputs":[{"name":"powerupType","type":"uint8","internalType":"uint8"},{"name":"powerupOwner","type":"address","internalType":"address"},{"name":"used","type":"bool","internalType":"bool"},{"name":"mintTimestamp","type":"uint256","internalType":"uint256"},{"name":"useTimestamp","type":"uint256","internalType":"uint256"},{"name":"powerupName","type":"string","internalType":"string"},{"name":"description","type":"string","internalType":"string"}],"stateMutability":"view"},{"type":"function","name":"getPowerupPrice","inputs":[{"name":"_powerupType","type":"uint8","internalType":"uint8"}],"outputs":[{"name":"","type":"uint256","internalType":"uint256"}],"stateMutability":"view"},{"type":"function","name":"getPowerups","inputs":[{"name":"_owner","type":"address","internalType":"address"}],"outputs":[{"name":"","type":"uint256[]","internalType":"uint256[]"}],"stateMutability":"view"},{"type":"function","name":"getUnusedPowerups","inputs":[{"name":"_owner","type":"address","internalType":"address"}],"outputs":[{"name":"","type":"uint256[]","internalType":"uint256[]"}],"stateMutability":"view"},{"type":"function","name":"isApprovedForAll","inputs":[{"name":"tokenOwner","type":"address","internalType":"address"},{"name":"operator","type":"address","internalType":"address"}],"outputs":[{"name":"","type":"bool","internalType":"bool"}],"stateMutability":"view"},{"type":"function","name":"mintPowerup","inputs":[{"name":"_powerupType","type":"uint8","internalType":"uint8"}],"outputs":[],"stateMutability":"payable"},{"type":"function","name":"name","inputs":[],"outputs":[{"name":"","type":"string","internalType":"string"}],"stateMutability":"view"},{"type":"function","name":"operatorApprovals","inputs":[{"name":"","type":"address","internalType":"address"},{"name":"","type":"address","internalType":"address"}],"outputs":[{"name":"","type":"bool","internalType":"bool"}],"stateMutability":"view"},{"type":"function","name":"owner","inputs":[],"outputs":[{"name":"","type":"address","internalType":"address"}],"stateMutability":"view"},{"type":"function","name":"ownerOf","inputs":[{"name":"tokenId","type":"uint256","internalType":"uint256"}],"outputs":[{"name":"","type":"address","internalType":"address"}],"stateMutability":"view"},{"type":"function","name":"ownerTokens","inputs":[{"name":"","type":"address","internalType":"address"},{"name":"","type":"uint256","internalType":"uint256"}],"outputs":[{"name":"","type":"uint256","internalType":"uint256"}],"stateMutability":"view"},{"type":"function","name":"powerupDescriptions","inputs":[{"name":"","type":"uint8","internalType":"uint8"}],"outputs":[{"name":"","type":"string","internalType":"string"}],"stateMutability":"view"},{"type":"function","name":"powerupNames","inputs":[{"name":"","type":"uint8","internalType":"uint8"}],"outputs":[{"name":"","type":"string","internalType":"string"}],"stateMutability":"view"},{"type":"function","name":"powerupPrices","inputs":[{"name":"","type":"uint8","internalType":"uint8"}],"outputs":[{"name":"","type":"uint256","internalType":"uint256"}],"stateMutability":"view"},{"type":"function","name":"powerups","inputs":[{"name":"","type":"uint256","internalType":"uint256"}],"outputs":[{"name":"powerupType","type":"uint8","internalType":"enum PowerupNFT.PowerupType"},{"name":"owner","type":"address","internalType":"address"},{"name":"used","type":"bool","internalType":"bool"},{"name":"mintTimestamp","type":"uint256","internalType":"uint256"},{"name":"useTimestamp","type":"uint256","internalType":"uint256"}],"stateMutability":"view"},{"type":"function","name":"safeTransferFrom","inputs":[{"name":"from","type":"address","internalType":"address"},{"name":"to","type":"address","internalType":"address"},{"name":"tokenId","type":"uint256","internalType":"uint256"}],"outputs":[],"stateMutability":"nonpayable"},{"type":"function","name":"safeTransferFrom","inputs":[{"name":"from","type":"address","internalType":"address"},{"name":"to","type":"address","internalType":"address"},{"name":"tokenId","type":"uint256","internalType":"uint256"},{"name":"data","type":"bytes","internalType":"bytes"}],"outputs":[],"stateMutability":"nonpayable"},{"type":"function","name":"setApprovalForAll","inputs":[{"name":"operator","type":"address","internalType":"address"},{"name":"approved","type":"bool","internalType":"bool"}],"outputs":[],"stateMutability":"nonpayable"},{"type":"function","name":"setPowerupDescription","inputs":[{"name":"_powerupType","type":"uint8","internalType":"uint8"},{"name":"_description","type":"string","internalType":"string"}],"outputs":[],"stateMutability":"nonpayable"},{"type":"function","name":"setPowerupName","inputs":[{"name":"_powerupType","type":"uint8","internalType":"uint8"},{"name":"_name","type":"string","internalType":"string"}],"outputs":[],"stateMutability":"nonpayable"},{"type":"function","name":"setPowerupPrice","inputs":[{"name":"_powerupType","type":"uint8","internalType":"uint8"},{"name":"_price","type":"uint256","internalType":"uint256"}],"outputs":[],"stateMutability":"nonpayable"},{"type":"function","name":"supportsInterface","inputs":[{"name":"interfaceId","type":"bytes4","internalType":"bytes4"}],"outputs":[{"name":"","type":"bool","internalType":"bool"}],"stateMutability":"pure"},{"type":"function","name":"symbol","inputs":[],"outputs":[{"name":"","type":"string","internalType":"string"}],"stateMutability":"view"},{"type":"function","name":"tokenApprovals","inputs":[{"name":"","type":"uint256","internalType":"uint256"}],"outputs":[{"name":"","type":"address","internalType":"address"}],"stateMutability":"view"},{"type":"function","name":"totalSupply","inputs":[],"outputs":[{"name":"","type":"uint256","internalType":"uint256"}],"stateMutability":"view"},{"type":"function","name":"transferFrom","inputs":[{"name":"from","type":"address","internalType":"address"},{"name":"to","type":"address","internalType":"address"},{"name":"tokenId","type":"uint256","internalType":"uint256"}],"outputs":[],"stateMutability":"nonpayable"},{"type":"function","name":"usePowerup","inputs":[{"name":"tokenId","type":"uint256","internalType":"uint256"}],"outputs":[],"stateMutability":"nonpayable"},{"type":"function","name":"withdraw","inputs":[],"outputs":[],"stateMutability":"nonpayable"},{"type":"event","name":"Approval","inputs":[{"name":"owner","type":"address","indexed":true,"internalType":"address"},{"name":"approved","type":"address","indexed":true,"internalType":"address"},{"name":"tokenId","type":"uint256","indexed":true,"internalType":"uint256"}],"anonymous":false},{"type":"event","name":"ApprovalForAll","inputs":[{"name":"owner","type":"address","indexed":true,"internalType":"address"},{"name":"operator","type":"address","indexed":true,"internalType":"address"},{"name":"approved","type":"bool","indexed":false,"internalType":"bool"}],"anonymous":false},{"type":"event","name":"PowerupMinted","inputs":[{"name":"to","type":"address","indexed":true,"internalType":"address"},{"name":"tokenId","type":"uint256","indexed":true,"internalType":"uint256"},{"name":"powerupType","type":"uint8","indexed":false,"internalType":"uint8"}],"anonymous":false},{"type":"event","name":"PowerupUsed","inputs":[{"name":"tokenId","type":"uint256","indexed":true,"internalType":"uint256"},{"name":"user","type":"address","indexed":true,"internalType":"address"}],"anonymous":false},{"type":"event","name":"Transfer","inputs":[{"name":"from","type":"address","indexed":true,"internalType":"address"},{"name":"to","type":"address","indexed":true,"internalType":"address"},{"name":"tokenId","type":"uint256","indexed":true,"internalType":"uint256"}],"anonymous":false}],"bytecode":{"object":"0x60c0604052601460809081527f4e656f6e2052756e6e657220506f77657275707300000000000000000000000060a0526000906200003e908262000582565b5060408051808201909152600381526204e52560ec1b602082015260019062000068908262000582565b503480156200007657600080fd5b50600880546001600160a01b03191633179055662386f26fc100007fec8156718a8372b1db44bb411437d0870f3e3790d4a08526d024ce1b0b668f6b5566354a6ba7a180007f92e85d02570a8092d09a6e3a57665bc3815a2699a4074001bf1ccabf660f5a365566470de4df8200007f6cde3cea4b3a3fb2488b2808bae7556f4a405e50f65e1794383bc026131b13c3556658d15e176280007fc575c31fea594a6eb97c8e9d3f9caee4c16218c6ef37e923234c0fe9014a61e75560408051808201909152600b81526a14dc19595908109bdbdcdd60aa1b60208281019190915260008052600a90527f13da86008ba1c6922daee3e07db95305ef49ebced9f5467a0b8613fcc6b343e3906200018d908262000582565b5060408051808201909152600681526514da1a595b1960d21b6020808301919091526001600052600a90527fbbc70db1b6c7afd11e79c0fb0051300458f1a3acb8ee9789d9b6b26c61ad9bc790620001e6908262000582565b5060408051808201909152600b81526a0446f75626c65204a756d760ac1b6020808301919091526002600052600a90527fbff4442b8ed600beeb8e26b1279a0f0d14c6edfaec26d968ee13c86f7d4c2ba89062000244908262000582565b5060408051808201909152601081526f29b1b7b9329026bab63a34b83634b2b960811b6020808301919091526003600052600a90527fa856840544dc26124927add067d799967eac11be13e14d82cc281ea46fa3975990620002a7908262000582565b506040518060600160405280602c815260200162003569602c913960008052600b6020527fdf7de25b7f1fd6d0b5205f0e18f1f35bd7b8d84cce336588d184533ce43a6f7690620002f9908262000582565b5060405180606001604052806033815260200162003595603391396001600052600b6020527f72c6bfb7988af3a1efa6568f02a999bc52252641c659d85961ca3d372b57d5cf906200034c908262000582565b50604051806060016040528060248152602001620035c8602491396002600052600b6020527fa50eece07c7db1631545c0069bd8f5f54d5935e215d59097edf258a44ba91634906200039f908262000582565b506040805180820190915260208082527f446f75626c65732073636f7265206761696e20666f722038207365636f6e6473818301526003600052600b90527f64c15cc42be7899b001f818cf4433057002112c418d1d3a67cd5cb453051d33e906200040b908262000582565b5060408051808201909152601781527f506f77657275704e4654206465706c6f7965642062793a00000000000000000060208201526200044c903362000452565b620006b0565b6200049f82826040516024016200046b9291906200064e565b60408051601f198184030181529190526020810180516001600160e01b0390811663319af33360e01b17909152620004a316565b5050565b620004b981620004bc60201b620022911760201c565b50565b60006a636f6e736f6c652e6c6f679050600080835160208501845afa505050565b634e487b7160e01b600052604160045260246000fd5b600181811c908216806200050857607f821691505b6020821081036200052957634e487b7160e01b600052602260045260246000fd5b50919050565b601f8211156200057d57600081815260208120601f850160051c81016020861015620005585750805b601f850160051c820191505b81811015620005795782815560010162000564565b5050505b505050565b81516001600160401b038111156200059e576200059e620004dd565b620005b681620005af8454620004f3565b846200052f565b602080601f831160018114620005ee5760008415620005d55750858301515b600019600386901b1c1916600185901b17855562000579565b600085815260208120601f198616915b828110156200061f57888601518255948401946001909101908401620005fe565b50858210156200063e5787850151600019600388901b60f8161c191681555b5050505050600190811b01905550565b604081526000835180604084015260005b818110156200067e57602081870181015160608684010152016200065f565b50600060608285018101919091526001600160a01b03949094166020840152601f01601f191690910190910192915050565b612ea980620006c06000396000f3fe6080604052600436106101e75760003560e01c806342842e0e1161010257806395d89b4111610095578063b88d4fde11610064578063b88d4fde1461067f578063d8a0966f1461069f578063db2e21bc146104a5578063e985e9c5146106bf57600080fd5b806395d89b41146105e75780639b2c1a45146105fc578063a22cb4651461061c578063acdeb5b91461063c57600080fd5b806370a08231116100d157806370a082311461053a578063739d2cc0146105675780638a7eac5d146105875780638da5cb5b146105ba57600080fd5b806342842e0e146104ba57806351ac22ce146104da57806362aebad0146104fa5780636352211e1461051a57600080fd5b806317f9d7db1161017a578063287b848e11610149578063287b848e1461044557806328aad7fd1461047257806328b60031146104855780633ccfd60b146104a557600080fd5b806317f9d7db146103d057806318160ddd146103f057806323b872dd1461040557806324eb42e71461042557600080fd5b8063095ea7b3116101b6578063095ea7b3146102ca578063096a209a146102ec5780630d95e0541461030c578063116cb21a1461034757600080fd5b806301ffc9a7146101f3578063036902b51461022857806306fdde0314610263578063081812fc1461028557600080fd5b366101ee57005b600080fd5b3480156101ff57600080fd5b5061021361020e3660046125f0565b610715565b60405190151581526020015b60405180910390f35b34801561023457600080fd5b5061025561024336600461264f565b60096020526000908152604090205481565b60405190815260200161021f565b34801561026f57600080fd5b506102786107fa565b60405161021f91906126ce565b34801561029157600080fd5b506102a56102a03660046126e1565b610888565b60405173ffffffffffffffffffffffffffffffffffffffff909116815260200161021f565b3480156102d657600080fd5b506102ea6102e536600461271e565b61092f565b005b3480156102f857600080fd5b5061027861030736600461264f565b610b7f565b34801561031857600080fd5b50610213610327366004612748565b600660209081526000928352604080842090915290825290205460ff1681565b34801561035357600080fd5b506103bf6103623660046126e1565b60036020526000908152604090208054600182015460029092015460ff8083169373ffffffffffffffffffffffffffffffffffffffff61010085041693750100000000000000000000000000000000000000000090049091169185565b60405161021f9594939291906127aa565b3480156103dc57600080fd5b506102786103eb36600461264f565b610b98565b3480156103fc57600080fd5b50600254610255565b34801561041157600080fd5b506102ea61042036600461281c565b610bb1565b34801561043157600080fd5b506102ea610440366004612858565b610f8e565b34801561045157600080fd5b506104656104603660046128db565b6110c6565b60405161021f91906128f6565b6102ea61048036600461264f565b61129f565b34801561049157600080fd5b506102556104a036600461271e565b6116cc565b3480156104b157600080fd5b506102ea6116fd565b3480156104c657600080fd5b506102ea6104d536600461281c565b6117ed565b3480156104e657600080fd5b506102ea6104f53660046126e1565b6117f8565b34801561050657600080fd5b506102ea610515366004612858565b611a89565b34801561052657600080fd5b506102a56105353660046126e1565b611bbb565b34801561054657600080fd5b506102556105553660046128db565b60076020526000908152604090205481565b34801561057357600080fd5b506104656105823660046128db565b611c5e565b34801561059357600080fd5b506105a76105a23660046126e1565b611cd7565b60405161021f979695949392919061293a565b3480156105c657600080fd5b506008546102a59073ffffffffffffffffffffffffffffffffffffffff1681565b3480156105f357600080fd5b50610278611fb2565b34801561060857600080fd5b506102ea6106173660046129a6565b611fbf565b34801561062857600080fd5b506102ea6106373660046129c2565b6120ea565b34801561064857600080fd5b506102a56106573660046126e1565b60056020526000908152604090205473ffffffffffffffffffffffffffffffffffffffff1681565b34801561068b57600080fd5b506102ea61069a366004612a2d565b612200565b3480156106ab57600080fd5b506102556106ba36600461264f565b61220b565b3480156106cb57600080fd5b506102136106da366004612748565b73ffffffffffffffffffffffffffffffffffffffff918216600090815260066020908152604080832093909416825291909152205460ff1690565b60007f80ac58cd000000000000000000000000000000000000000000000000000000007fffffffff00000000000000000000000000000000000000000000000000000000831614806107a857507f5b5e139f000000000000000000000000000000000000000000000000000000007fffffffff000000000000000000000000000000000000000000000000000000008316145b806107f457507f01ffc9a7000000000000000000000000000000000000000000000000000000007fffffffff000000000000000000000000000000000000000000000000000000008316145b92915050565b6000805461080790612b27565b80601f016020809104026020016040519081016040528092919081815260200182805461083390612b27565b80156108805780601f1061085557610100808354040283529160200191610880565b820191906000526020600020905b81548152906001019060200180831161086357829003601f168201915b505050505081565b600081610896816002541190565b610901576040517f08c379a000000000000000000000000000000000000000000000000000000000815260206004820152601460248201527f546f6b656e20646f6573206e6f7420657869737400000000000000000000000060448201526064015b60405180910390fd5b60008381526005602052604090205473ffffffffffffffffffffffffffffffffffffffff1691505b50919050565b8061093b816002541190565b6109a1576040517f08c379a000000000000000000000000000000000000000000000000000000000815260206004820152601460248201527f546f6b656e20646f6573206e6f7420657869737400000000000000000000000060448201526064016108f8565b60006109ac83611bbb565b90508073ffffffffffffffffffffffffffffffffffffffff168473ffffffffffffffffffffffffffffffffffffffff1603610a43576040517f08c379a000000000000000000000000000000000000000000000000000000000815260206004820152601960248201527f417070726f76616c20746f2063757272656e74206f776e65720000000000000060448201526064016108f8565b3373ffffffffffffffffffffffffffffffffffffffff82161480610a97575073ffffffffffffffffffffffffffffffffffffffff8116600090815260066020908152604080832033845290915290205460ff165b610afd576040517f08c379a000000000000000000000000000000000000000000000000000000000815260206004820152601560248201527f4e6f7420617070726f766564206f72206f776e6572000000000000000000000060448201526064016108f8565b60008381526005602052604080822080547fffffffffffffffffffffffff00000000000000000000000000000000000000001673ffffffffffffffffffffffffffffffffffffffff88811691821790925591518693918516917f8c5be1e5ebec7d5bd14f71427d1e84f3dd0314c0f7b2291e5b200ac8c7c3b92591a450505050565b600a602052600090815260409020805461080790612b27565b600b602052600090815260409020805461080790612b27565b80610bbd816002541190565b610c23576040517f08c379a000000000000000000000000000000000000000000000000000000000815260206004820152601460248201527f546f6b656e20646f6573206e6f7420657869737400000000000000000000000060448201526064016108f8565b610c2d33836122b2565b610c93576040517f08c379a000000000000000000000000000000000000000000000000000000000815260206004820152601560248201527f4e6f7420617070726f766564206f72206f776e6572000000000000000000000060448201526064016108f8565b73ffffffffffffffffffffffffffffffffffffffff8416610d10576040517f08c379a000000000000000000000000000000000000000000000000000000000815260206004820152601a60248201527f5472616e736665722066726f6d207a65726f206164647265737300000000000060448201526064016108f8565b73ffffffffffffffffffffffffffffffffffffffff8316610d8d576040517f08c379a000000000000000000000000000000000000000000000000000000000815260206004820152601860248201527f5472616e7366657220746f207a65726f2061646472657373000000000000000060448201526064016108f8565b8373ffffffffffffffffffffffffffffffffffffffff16610dad83611bbb565b73ffffffffffffffffffffffffffffffffffffffff1614610e2a576040517f08c379a000000000000000000000000000000000000000000000000000000000815260206004820152601d60248201527f5472616e736665722066726f6d20696e636f7272656374206f776e657200000060448201526064016108f8565b600082815260056020908152604080832080547fffffffffffffffffffffffff000000000000000000000000000000000000000016905573ffffffffffffffffffffffffffffffffffffffff8716835260079091528120805491610e8d83612ba3565b909155505073ffffffffffffffffffffffffffffffffffffffff83166000908152600760205260408120805491610ec383612bd8565b9091555050600082815260036020526040902080547fffffffffffffffffffffff0000000000000000000000000000000000000000ff1661010073ffffffffffffffffffffffffffffffffffffffff861602179055610f2284836123e4565b73ffffffffffffffffffffffffffffffffffffffff808416600081815260046020908152604080832080546001810182559084529183209091018690555185938816917fddf252ad1be2c89b69c2b068fc378daa952ba7f163c4a11628f55a4df523b3ef91a450505050565b60085473ffffffffffffffffffffffffffffffffffffffff163314611035576040517f08c379a000000000000000000000000000000000000000000000000000000000815260206004820152602160248201527f4f6e6c79206f776e65722063616e2063616c6c20746869732066756e6374696f60448201527f6e0000000000000000000000000000000000000000000000000000000000000060648201526084016108f8565b60038360ff1611156110a3576040517f08c379a000000000000000000000000000000000000000000000000000000000815260206004820152601460248201527f496e76616c696420706f7765727570207479706500000000000000000000000060448201526064016108f8565b60ff83166000908152600b602052604090206110c0828483612c5e565b50505050565b73ffffffffffffffffffffffffffffffffffffffff8116600090815260046020908152604080832080548251818502810185019093528083526060949383018282801561113257602002820191906000526020600020905b81548152602001906001019080831161111e575b505050505090506000805b82518110156111a7576003600084838151811061115c5761115c612d79565b6020026020010151815260200190815260200160002060000160159054906101000a900460ff16611195578161119181612bd8565b9250505b8061119f81612bd8565b91505061113d565b5060008167ffffffffffffffff8111156111c3576111c36129fe565b6040519080825280602002602001820160405280156111ec578160200160208202803683370190505b5090506000805b8451811015611294576003600086838151811061121257611212612d79565b6020026020010151815260200190815260200160002060000160159054906101000a900460ff166112825784818151811061124f5761124f612d79565b602002602001015183838151811061126957611269612d79565b60209081029190910101528161127e81612bd8565b9250505b8061128c81612bd8565b9150506111f3565b509095945050505050565b60038160ff16111561130d576040517f08c379a000000000000000000000000000000000000000000000000000000000815260206004820152601460248201527f496e76616c696420706f7765727570207479706500000000000000000000000060448201526064016108f8565b60ff8116600090815260096020526040902054341015611389576040517f08c379a000000000000000000000000000000000000000000000000000000000815260206004820152601460248201527f496e73756666696369656e74207061796d656e7400000000000000000000000060448201526064016108f8565b600280546000918261139a83612bd8565b9190505590506040518060a001604052808360ff1660038111156113c0576113c061277b565b60038111156113d1576113d161277b565b81526020013373ffffffffffffffffffffffffffffffffffffffff16815260200160001515815260200142815260200160008152506003600083815260200190815260200160002060008201518160000160006101000a81548160ff021916908360038111156114435761144361277b565b0217905550602082810151825460408086015115157501000000000000000000000000000000000000000000027fffffffffffffffffffff00ffffffffffffffffffffffffffffffffffffffffff73ffffffffffffffffffffffffffffffffffffffff90941661010002939093167fffffffffffffffffffff000000000000000000000000000000000000000000ff9092169190911791909117835560608401516001840155608090930151600290920191909155336000908152600790915290812080549161151283612bd8565b9091555050336000818152600460209081526040808320805460018101825590845291832090910184905551839291907fddf252ad1be2c89b69c2b068fc378daa952ba7f163c4a11628f55a4df523b3ef908290a460405160ff83168152819033907fcbe39875360be8e257cef35974ba335cc9a613e733f84aaf3d0a5c5fc80ea32e9060200160405180910390a36115e36040518060400160405280601681526020017f506f7765727570206d696e746564202d20547970653a000000000000000000008152508360ff166124bf565b6116226040518060400160405280600981526020017f546f6b656e2049443a0000000000000000000000000000000000000000000000815250826124bf565b6116616040518060400160405280600681526020017f4f776e65723a000000000000000000000000000000000000000000000000000081525033612550565b60ff82166000908152600960205260409020543411156116c85760ff821660009081526009602052604090205433906108fc9061169e9034612da8565b6040518115909202916000818181858888f193505050501580156116c6573d6000803e3d6000fd5b505b5050565b600460205281600052604060002081815481106116e857600080fd5b90600052602060002001600091509150505481565b60085473ffffffffffffffffffffffffffffffffffffffff1633146117a4576040517f08c379a000000000000000000000000000000000000000000000000000000000815260206004820152602160248201527f4f6e6c79206f776e65722063616e2063616c6c20746869732066756e6374696f60448201527f6e0000000000000000000000000000000000000000000000000000000000000060648201526084016108f8565b60085460405173ffffffffffffffffffffffffffffffffffffffff909116904780156108fc02916000818181858888f193505050501580156117ea573d6000803e3d6000fd5b50565b6116c6838383610bb1565b80611804816002541190565b61186a576040517f08c379a000000000000000000000000000000000000000000000000000000000815260206004820152601460248201527f546f6b656e20646f6573206e6f7420657869737400000000000000000000000060448201526064016108f8565b600082815260036020526040902054610100900473ffffffffffffffffffffffffffffffffffffffff1633146118fc576040517f08c379a000000000000000000000000000000000000000000000000000000000815260206004820152601a60248201527f596f7520646f6e2774206f776e207468697320706f776572757000000000000060448201526064016108f8565b6000828152600360205260409020547501000000000000000000000000000000000000000000900460ff161561198e576040517f08c379a000000000000000000000000000000000000000000000000000000000815260206004820152601460248201527f506f776572757020616c7265616479207573656400000000000000000000000060448201526064016108f8565b60008281526003602052604080822080547fffffffffffffffffffff00ffffffffffffffffffffffffffffffffffffffffff1675010000000000000000000000000000000000000000001781554260029091015551339184917fc58bdca4b74caff4d46f9f3a7a2792dbb27d37d6b10e175af8f964caf91ac4a69190a3611a4a6040518060400160405280601881526020017f506f77657275702075736564202d20546f6b656e2049443a0000000000000000815250836124bf565b6116c86040518060400160405280600581526020017f557365723a00000000000000000000000000000000000000000000000000000081525033612550565b60085473ffffffffffffffffffffffffffffffffffffffff163314611b30576040517f08c379a000000000000000000000000000000000000000000000000000000000815260206004820152602160248201527f4f6e6c79206f776e65722063616e2063616c6c20746869732066756e6374696f60448201527f6e0000000000000000000000000000000000000000000000000000000000000060648201526084016108f8565b60038360ff161115611b9e576040517f08c379a000000000000000000000000000000000000000000000000000000000815260206004820152601460248201527f496e76616c696420706f7765727570207479706500000000000000000000000060448201526064016108f8565b60ff83166000908152600a602052604090206110c0828483612c5e565b600081611bc9816002541190565b611c2f576040517f08c379a000000000000000000000000000000000000000000000000000000000815260206004820152601460248201527f546f6b656e20646f6573206e6f7420657869737400000000000000000000000060448201526064016108f8565b5050600090815260036020526040902054610100900473ffffffffffffffffffffffffffffffffffffffff1690565b73ffffffffffffffffffffffffffffffffffffffff8116600090815260046020908152604091829020805483518184028101840190945280845260609392830182828015611ccb57602002820191906000526020600020905b815481526020019060010190808311611cb7575b50505050509050919050565b600080600080600060608087611cee816002541190565b611d54576040517f08c379a000000000000000000000000000000000000000000000000000000000815260206004820152601460248201527f546f6b656e20646f6573206e6f7420657869737400000000000000000000000060448201526064016108f8565b6000898152600360208190526040808320815160a08101909252805491929091839160ff90911690811115611d8b57611d8b61277b565b6003811115611d9c57611d9c61277b565b81528154610100810473ffffffffffffffffffffffffffffffffffffffff1660208301527501000000000000000000000000000000000000000000900460ff16151560408201526001820154606082015260029091015460809091015280519091506003811115611e0f57611e0f61277b565b8160200151826040015183606001518460800151600a600087600001516003811115611e3d57611e3d61277b565b60ff1660ff168152602001908152602001600020600b600088600001516003811115611e6b57611e6b61277b565b60ff1660ff168152602001908152602001600020818054611e8b90612b27565b80601f0160208091040260200160405190810160405280929190818152602001828054611eb790612b27565b8015611f045780601f10611ed957610100808354040283529160200191611f04565b820191906000526020600020905b815481529060010190602001808311611ee757829003601f168201915b50505050509150808054611f1790612b27565b80601f0160208091040260200160405190810160405280929190818152602001828054611f4390612b27565b8015611f905780601f10611f6557610100808354040283529160200191611f90565b820191906000526020600020905b815481529060010190602001808311611f7357829003601f168201915b5050505050905098509850985098509850985098505050919395979092949650565b6001805461080790612b27565b60085473ffffffffffffffffffffffffffffffffffffffff163314612066576040517f08c379a000000000000000000000000000000000000000000000000000000000815260206004820152602160248201527f4f6e6c79206f776e65722063616e2063616c6c20746869732066756e6374696f60448201527f6e0000000000000000000000000000000000000000000000000000000000000060648201526084016108f8565b60038260ff1611156120d4576040517f08c379a000000000000000000000000000000000000000000000000000000000815260206004820152601460248201527f496e76616c696420706f7765727570207479706500000000000000000000000060448201526064016108f8565b60ff909116600090815260096020526040902055565b3373ffffffffffffffffffffffffffffffffffffffff831603612169576040517f08c379a000000000000000000000000000000000000000000000000000000000815260206004820152601160248201527f417070726f766520746f2063616c6c657200000000000000000000000000000060448201526064016108f8565b33600081815260066020908152604080832073ffffffffffffffffffffffffffffffffffffffff87168085529083529281902080547fffffffffffffffffffffffffffffffffffffffffffffffffffffffffffffff001686151590811790915590519081529192917f17307eab39ab6107e8899845ad3d59bd9653f200f220920489ca2b5937696c31910160405180910390a35050565b6110c0848484610bb1565b600060038260ff16111561227b576040517f08c379a000000000000000000000000000000000000000000000000000000000815260206004820152601460248201527f496e76616c696420706f7765727570207479706500000000000000000000000060448201526064016108f8565b5060ff1660009081526009602052604090205490565b60006a636f6e736f6c652e6c6f679050600080835160208501845afa505050565b60006122bf826002541190565b612325576040517f08c379a000000000000000000000000000000000000000000000000000000000815260206004820152601460248201527f546f6b656e20646f6573206e6f7420657869737400000000000000000000000060448201526064016108f8565b600061233083611bbb565b90508073ffffffffffffffffffffffffffffffffffffffff168473ffffffffffffffffffffffffffffffffffffffff16148061239f57508373ffffffffffffffffffffffffffffffffffffffff1661238784610888565b73ffffffffffffffffffffffffffffffffffffffff16145b806123dc575073ffffffffffffffffffffffffffffffffffffffff80821660009081526006602090815260408083209388168352929052205460ff165b949350505050565b73ffffffffffffffffffffffffffffffffffffffff82166000908152600460205260408120905b81548110156110c0578282828154811061242757612427612d79565b9060005260206000200154036124ad578154829061244790600190612da8565b8154811061245757612457612d79565b906000526020600020015482828154811061247457612474612d79565b90600052602060002001819055508180548061249257612492612dbb565b600190038181906000526020600020016000905590556110c0565b806124b781612bd8565b91505061240b565b6116c882826040516024016124d5929190612dea565b604080517fffffffffffffffffffffffffffffffffffffffffffffffffffffffffffffffe08184030181529190526020810180517bffffffffffffffffffffffffffffffffffffffffffffffffffffffff167fb60e72cc000000000000000000000000000000000000000000000000000000001790526125dd565b6116c88282604051602401612566929190612e0c565b604080517fffffffffffffffffffffffffffffffffffffffffffffffffffffffffffffffe08184030181529190526020810180517bffffffffffffffffffffffffffffffffffffffffffffffffffffffff167f319af333000000000000000000000000000000000000000000000000000000001790525b6117ea81612291565b6125ee612e44565b565b60006020828403121561260257600080fd5b81357fffffffff000000000000000000000000000000000000000000000000000000008116811461263257600080fd5b9392505050565b803560ff8116811461264a57600080fd5b919050565b60006020828403121561266157600080fd5b61263282612639565b6000815180845260005b8181101561269057602081850181015186830182015201612674565b5060006020828601015260207fffffffffffffffffffffffffffffffffffffffffffffffffffffffffffffffe0601f83011685010191505092915050565b602081526000612632602083018461266a565b6000602082840312156126f357600080fd5b5035919050565b803573ffffffffffffffffffffffffffffffffffffffff8116811461264a57600080fd5b6000806040838503121561273157600080fd5b61273a836126fa565b946020939093013593505050565b6000806040838503121561275b57600080fd5b612764836126fa565b9150612772602084016126fa565b90509250929050565b7f4e487b7100000000000000000000000000000000000000000000000000000000600052602160045260246000fd5b60a08101600487106127e5577f4e487b7100000000000000000000000000000000000000000000000000000000600052602160045260246000fd5b95815273ffffffffffffffffffffffffffffffffffffffff9490941660208501529115156040840152606083015260809091015290565b60008060006060848603121561283157600080fd5b61283a846126fa565b9250612848602085016126fa565b9150604084013590509250925092565b60008060006040848603121561286d57600080fd5b61287684612639565b9250602084013567ffffffffffffffff8082111561289357600080fd5b818601915086601f8301126128a757600080fd5b8135818111156128b657600080fd5b8760208285010111156128c857600080fd5b6020830194508093505050509250925092565b6000602082840312156128ed57600080fd5b612632826126fa565b6020808252825182820181905260009190848201906040850190845b8181101561292e57835183529284019291840191600101612912565b50909695505050505050565b60ff8816815273ffffffffffffffffffffffffffffffffffffffff87166020820152851515604082015284606082015283608082015260e060a0820152600061298660e083018561266a565b82810360c0840152612998818561266a565b9a9950505050505050505050565b600080604083850312156129b957600080fd5b61273a83612639565b600080604083850312156129d557600080fd5b6129de836126fa565b9150602083013580151581146129f357600080fd5b809150509250929050565b7f4e487b7100000000000000000000000000000000000000000000000000000000600052604160045260246000fd5b60008060008060808587031215612a4357600080fd5b612a4c856126fa565b9350612a5a602086016126fa565b925060408501359150606085013567ffffffffffffffff80821115612a7e57600080fd5b818701915087601f830112612a9257600080fd5b813581811115612aa457612aa46129fe565b604051601f82017fffffffffffffffffffffffffffffffffffffffffffffffffffffffffffffffe0908116603f01168101908382118183101715612aea57612aea6129fe565b816040528281528a6020848701011115612b0357600080fd5b82602086016020830137600060208483010152809550505050505092959194509250565b600181811c90821680612b3b57607f821691505b602082108103610929577f4e487b7100000000000000000000000000000000000000000000000000000000600052602260045260246000fd5b7f4e487b7100000000000000000000000000000000000000000000000000000000600052601160045260246000fd5b600081612bb257612bb2612b74565b507fffffffffffffffffffffffffffffffffffffffffffffffffffffffffffffffff0190565b60007fffffffffffffffffffffffffffffffffffffffffffffffffffffffffffffffff8203612c0957612c09612b74565b5060010190565b601f8211156116c657600081815260208120601f850160051c81016020861015612c375750805b601f850160051c820191505b81811015612c5657828155600101612c43565b505050505050565b67ffffffffffffffff831115612c7657612c766129fe565b612c8a83612c848354612b27565b83612c10565b6000601f841160018114612cdc5760008515612ca65750838201355b7fffffffffffffffffffffffffffffffffffffffffffffffffffffffffffffffff600387901b1c1916600186901b178355612d72565b6000838152602090207fffffffffffffffffffffffffffffffffffffffffffffffffffffffffffffffe0861690835b82811015612d2b5786850135825560209485019460019092019101612d0b565b5086821015612d66577fffffffffffffffffffffffffffffffffffffffffffffffffffffffffffffffff60f88860031b161c19848701351681555b505060018560011b0183555b5050505050565b7f4e487b7100000000000000000000000000000000000000000000000000000000600052603260045260246000fd5b818103818111156107f4576107f4612b74565b7f4e487b7100000000000000000000000000000000000000000000000000000000600052603160045260246000fd5b604081526000612dfd604083018561266a565b90508260208301529392505050565b604081526000612e1f604083018561266a565b905073ffffffffffffffffffffffffffffffffffffffff831660208301529392505050565b7f4e487b7100000000000000000000000000000000000000000000000000000000600052605160045260246000fdfea26469706673582212208f14c879fb64b7b2354e72fdf06006305457f25dd5d0bf0d9afa66e4c59daa9f64736f6c63430008130033496e637265617365732072756e6e696e672073706565642062792035302520666f722035207365636f6e647350726f74656374732066726f6d206f6e65206f62737461636c6520636f6c6c6973696f6e20666f72203130207365636f6e6473416c6c6f777320646f75626c65206a756d70696e6720666f72203135207365636f6e6473","linkReferences":{}},"methodIdentifiers":{"approve(address,uint256)":"095ea7b3","balanceOf(address)":"70a08231","emergencyWithdraw()":"db2e21bc","getApproved(uint256)":"081812fc","getPowerupDetails(uint256)":"8a7eac5d","getPowerupPrice(uint8)":"d8a0966f","getPowerups(address)":"739d2cc0","getUnusedPowerups(address)":"287b848e","isApprovedForAll(address,address)":"e985e9c5","mintPowerup(uint8)":"28aad7fd","name()":"06fdde03","operatorApprovals(address,address)":"0d95e054","owner()":"8da5cb5b","ownerOf(uint256)":"6352211e","ownerTokens(address,uint256)":"28b60031","powerupDescriptions(uint8)":"17f9d7db","powerupNames(uint8)":"096a209a","powerupPrices(uint8)":"036902b5","powerups(uint256)":"116cb21a","safeTransferFrom(address,address,uint256)":"42842e0e","safeTransferFrom(address,address,uint256,bytes)":"b88d4fde","setApprovalForAll(address,bool)":"a22cb465","setPowerupDescription(uint8,string)":"24eb42e7","setPowerupName(uint8,string)":"62aebad0","setPowerupPrice(uint8,uint256)":"9b2c1a45","supportsInterface(bytes4)":"01ffc9a7","symbol()":"95d89b41","tokenApprovals(uint256)":"acdeb5b9","totalSupply()":"18160ddd","transferFrom(address,address,uint256)":"23b872dd","usePowerup(uint256)":"51ac22ce","withdraw()":"3ccfd60b"},"id":21}