{"abi":[{"type":"constructor","inputs":[],"stateMutability":"nonpayable"},{"type":"receive","stateMutability":"payable"},{"type":"function","name":"MAX_SCORE","inputs":[],"outputs":[{"name":"","type":"uint256","internalType":"uint256"}],"stateMutability":"view"},{"type":"function","name":"MIN_SESSION_TIME","inputs":[],"outputs":[{"name":"","type":"uint256","internalType":"uint256"}],"stateMutability":"view"},{"type":"function","name":"emergencyWithdraw","inputs":[],"outputs":[],"stateMutability":"nonpayable"},{"type":"function","name":"gameActive","inputs":[],"outputs":[{"name":"","type":"bool","internalType":"bool"}],"stateMutability":"view"},{"type":"function","name":"gameSessions","inputs":[{"name":"","type":"uint256","internalType":"uint256"}],"outputs":[{"name":"player","type":"address","internalType":"address"},{"name":"score","type":"uint256","internalType":"uint256"},{"name":"distance","type":"uint256","internalType":"uint256"},{"name":"powerupsCollected","type":"uint256","internalType":"uint256"},{"name":"timestamp","type":"uint256","internalType":"uint256"},{"name":"sessionHash","type":"bytes32","internalType":"bytes32"}],"stateMutability":"view"},{"type":"function","name":"getGameStats","inputs":[],"outputs":[{"name":"totalPlayers","type":"uint256","internalType":"uint256"},{"name":"totalSessions","type":"uint256","internalType":"uint256"},{"name":"highestScore","type":"uint256","internalType":"uint256"},{"name":"topPlayer","type":"address","internalType":"address"}],"stateMutability":"view"},{"type":"function","name":"getPlayerStats","inputs":[{"name":"_player","type":"address","internalType":"address"}],"outputs":[{"name":"highScore","type":"uint256","internalType":"uint256"},{"name":"totalGames","type":"uint256","internalType":"uint256"},{"name":"totalDistance","type":"uint256","internalType":"uint256"},{"name":"totalPowerupsCollected","type":"uint256","internalType":"uint256"},{"name":"lastPlayed","type":"uint256","internalType":"uint256"},{"name":"username","type":"string","internalType":"string"}],"stateMutability":"view"},{"type":"function","name":"getRecentSessions","inputs":[{"name":"_limit","type":"uint256","internalType":"uint256"}],"outputs":[{"name":"","type":"tuple[]","internalType":"struct NeonRunnerGame.GameSession[]","components":[{"name":"player","type":"address","internalType":"address"},{"name":"score","type":"uint256","internalType":"uint256"},{"name":"distance","type":"uint256","internalType":"uint256"},{"name":"powerupsCollected","type":"uint256","internalType":"uint256"},{"name":"timestamp","type":"uint256","internalType":"uint256"},{"name":"sessionHash","type":"bytes32","internalType":"bytes32"}]}],"stateMutability":"view"},{"type":"function","name":"getTopPlayers","inputs":[{"name":"_limit","type":"uint256","internalType":"uint256"}],"outputs":[{"name":"topPlayers","type":"address[]","internalType":"address[]"},{"name":"scores","type":"uint256[]","internalType":"uint256[]"},{"name":"names","type":"string[]","internalType":"string[]"}],"stateMutability":"view"},{"type":"function","name":"getTotalPlayers","inputs":[],"outputs":[{"name":"","type":"uint256","internalType":"uint256"}],"stateMutability":"view"},{"type":"function","name":"getTotalSessions","inputs":[],"outputs":[{"name":"","type":"uint256","internalType":"uint256"}],"stateMutability":"view"},{"type":"function","name":"getUsername","inputs":[{"name":"_player","type":"address","internalType":"address"}],"outputs":[{"name":"","type":"string","internalType":"string"}],"stateMutability":"view"},{"type":"function","name":"leaderboard","inputs":[],"outputs":[{"name":"","type":"address","internalType":"contract Leaderboard"}],"stateMutability":"view"},{"type":"function","name":"owner","inputs":[],"outputs":[{"name":"","type":"address","internalType":"address"}],"stateMutability":"view"},{"type":"function","name":"playerStats","inputs":[{"name":"","type":"address","internalType":"address"}],"outputs":[{"name":"highScore","type":"uint256","internalType":"uint256"},{"name":"totalGames","type":"uint256","internalType":"uint256"},{"name":"totalDistance","type":"uint256","internalType":"uint256"},{"name":"totalPowerupsCollected","type":"uint256","internalType":"uint256"},{"name":"lastPlayedTimestamp","type":"uint256","internalType":"uint256"},{"name":"username","type":"string","internalType":"string"}],"stateMutability":"view"},{"type":"function","name":"players","inputs":[{"name":"","type":"uint256","internalType":"uint256"}],"outputs":[{"name":"","type":"address","internalType":"address"}],"stateMutability":"view"},{"type":"function","name":"setGameActive","inputs":[{"name":"_active","type":"bool","internalType":"bool"}],"outputs":[],"stateMutability":"nonpayable"},{"type":"function","name":"setLeaderboard","inputs":[{"name":"_leaderboard","type":"address","internalType":"address"}],"outputs":[],"stateMutability":"nonpayable"},{"type":"function","name":"setUsername","inputs":[{"name":"_username","type":"string","internalType":"string"}],"outputs":[],"stateMutability":"nonpayable"},{"type":"function","name":"submitScore","inputs":[{"name":"_score","type":"uint256","internalType":"uint256"},{"name":"_distance","type":"uint256","internalType":"uint256"},{"name":"_powerupsCollected","type":"uint256","internalType":"uint256"}],"outputs":[],"stateMutability":"nonpayable"},{"type":"function","name":"totalGamesPlayed","inputs":[],"outputs":[{"name":"","type":"uint256","internalType":"uint256"}],"stateMutability":"view"},{"type":"function","name":"usedSessionHashes","inputs":[{"name":"","type":"bytes32","internalType":"bytes32"}],"outputs":[{"name":"","type":"bool","internalType":"bool"}],"stateMutability":"view"},{"type":"function","name":"usernames","inputs":[{"name":"","type":"address","internalType":"address"}],"outputs":[{"name":"","type":"string","internalType":"string"}],"stateMutability":"view"},{"type":"event","name":"HighScoreAchieved","inputs":[{"name":"player","type":"address","indexed":true,"internalType":"address"},{"name":"newHighScore","type":"uint256","indexed":false,"internalType":"uint256"}],"anonymous":false},{"type":"event","name":"ScoreSubmitted","inputs":[{"name":"player","type":"address","indexed":true,"internalType":"address"},{"name":"score","type":"uint256","indexed":false,"internalType":"uint256"},{"name":"distance","type":"uint256","indexed":false,"internalType":"uint256"},{"name":"powerupsCollected","type":"uint256","indexed":false,"internalType":"uint256"},{"name":"timestamp","type":"uint256","indexed":false,"internalType":"uint256"}],"anonymous":false},{"type":"event","name":"UsernameSet","inputs":[{"name":"player","type":"address","indexed":true,"internalType":"address"},{"name":"username","type":"string","indexed":false,"internalType":"string"}],"anonymous":false}],"bytecode":{"object":"0x60806040523480156200001157600080fd5b506005805460ff60a01b19339081166001600160a81b031990921691909117600160a01b1790915560408051808201909152601b81527f4e656f6e52756e6e657247616d65206465706c6f7965642062793a0000000000602082015262000078916200007e565b6200016b565b620000cb82826040516024016200009792919062000109565b60408051601f198184030181529190526020810180516001600160e01b0390811663319af33360e01b17909152620000cf16565b5050565b620000e581620000e860201b620020ec1760201c565b50565b60006a636f6e736f6c652e6c6f679050600080835160208501845afa505050565b604081526000835180604084015260005b818110156200013957602081870181015160608684010152016200011a565b50600060608285018101919091526001600160a01b03949094166020840152601f01601f191690910190910192915050565b6128fc806200017b6000396000f3fe6080604052600436106101845760003560e01c8063cdafbbb6116100d6578063ee91877c1161007f578063f1a2de7211610059578063f1a2de72146104f4578063f6aa250314610514578063f71d96cb1461054157600080fd5b8063ee91877c14610482578063ef2c25a4146104a2578063f020044f146104c257600080fd5b8063dd3fc386116100b0578063dd3fc38614610420578063eb56b74014610435578063ed59313a1461046257600080fd5b8063cdafbbb6146103be578063ce43c032146103de578063db2e21bc1461040b57600080fd5b80634fd66eae116101385780638da5cb5b116101125780638da5cb5b1461031b578063ba3c00671461036d578063ccc089741461039c57600080fd5b80634fd66eae146102be5780635c492129146102f05780636073e4b71461030657600080fd5b8063303c4fed11610169578063303c4fed1461020557806334a8014b146102455780634529cae7146102a957600080fd5b80631aff30dd1461019057806327ff6223146101e057600080fd5b3661018b57005b600080fd5b34801561019c57600080fd5b506101a5610561565b6040805194855260208501939093529183015273ffffffffffffffffffffffffffffffffffffffff1660608201526080015b60405180910390f35b3480156101ec57600080fd5b506101f7620f424081565b6040519081526020016101d7565b34801561021157600080fd5b506102356102203660046121bb565b60016020526000908152604090205460ff1681565b60405190151581526020016101d7565b34801561025157600080fd5b506102656102603660046121bb565b61062d565b6040805173ffffffffffffffffffffffffffffffffffffffff90971687526020870195909552938501929092526060840152608083015260a082015260c0016101d7565b3480156102b557600080fd5b506003546101f7565b3480156102ca57600080fd5b506102de6102d93660046121d4565b61068a565b6040516101d796959493929190612275565b3480156102fc57600080fd5b506101f760065481565b34801561031257600080fd5b506004546101f7565b34801561032757600080fd5b506005546103489073ffffffffffffffffffffffffffffffffffffffff1681565b60405173ffffffffffffffffffffffffffffffffffffffff90911681526020016101d7565b34801561037957600080fd5b5061038d6103883660046121bb565b6107d6565b6040516101d793929190612307565b3480156103a857600080fd5b506103bc6103b736600461239f565b610f05565b005b3480156103ca57600080fd5b506102de6103d93660046121d4565b610ff6565b3480156103ea57600080fd5b506103fe6103f93660046121d4565b6110ba565b6040516101d791906123c1565b34801561041757600080fd5b506103bc611173565b34801561042c57600080fd5b506101f7600a81565b34801561044157600080fd5b506007546103489073ffffffffffffffffffffffffffffffffffffffff1681565b34801561046e57600080fd5b506103bc61047d3660046123d4565b611263565b34801561048e57600080fd5b506103fe61049d3660046121d4565b6113c6565b3480156104ae57600080fd5b506103bc6104bd366004612446565b611460565b3480156104ce57600080fd5b506005546102359074010000000000000000000000000000000000000000900460ff1681565b34801561050057600080fd5b506103bc61050f3660046121d4565b611d32565b34801561052057600080fd5b5061053461052f3660046121bb565b611e20565b6040516101d79190612472565b34801561054d57600080fd5b5061034861055c3660046121bb565b6120b5565b6003546000908190819081908180805b8381101561061b57600080600060038481548110610591576105916124f3565b600091825260208083209091015473ffffffffffffffffffffffffffffffffffffffff16835282019290925260400190205490508381111561060857809350600382815481106105e3576105e36124f3565b60009182526020909120015473ffffffffffffffffffffffffffffffffffffffff1692505b508061061381612551565b915050610571565b50600454929792965090945092509050565b6004818154811061063d57600080fd5b600091825260209091206006909102018054600182015460028301546003840154600485015460059095015473ffffffffffffffffffffffffffffffffffffffff90941695509193909286565b6000806000806000606060008060008973ffffffffffffffffffffffffffffffffffffffff1673ffffffffffffffffffffffffffffffffffffffff1681526020019081526020016000206040518060c0016040529081600082015481526020016001820154815260200160028201548152602001600382015481526020016004820154815260200160058201805461072190612589565b80601f016020809104026020016040519081016040528092919081815260200182805461074d90612589565b801561079a5780601f1061076f5761010080835404028352916020019161079a565b820191906000526020600020905b81548152906001019060200180831161077d57829003601f168201915b5050509190925250508151602083015160408401516060850151608086015160a090960151939e929d50909b5099509297509550909350505050565b60608060606000841180156107ec575060648411155b610857576040517f08c379a000000000000000000000000000000000000000000000000000000000815260206004820152600d60248201527f496e76616c6964206c696d69740000000000000000000000000000000000000060448201526064015b60405180910390fd5b60035460008190036108aa57604080516000808252602082018181528284018281526060840190945291929061089d565b60608152602001906001900390816108885790505b5093509350935050610efe565b60008167ffffffffffffffff8111156108c5576108c56125dc565b6040519080825280602002602001820160405280156108ee578160200160208202803683370190505b50905060008267ffffffffffffffff81111561090c5761090c6125dc565b604051908082528060200260200182016040528015610935578160200160208202803683370190505b50905060005b83811015610a465760038181548110610956576109566124f3565b9060005260206000200160009054906101000a900473ffffffffffffffffffffffffffffffffffffffff16838281518110610993576109936124f3565b602002602001019073ffffffffffffffffffffffffffffffffffffffff16908173ffffffffffffffffffffffffffffffffffffffff1681525050600080600383815481106109e3576109e36124f3565b600091825260208083209091015473ffffffffffffffffffffffffffffffffffffffff1683528201929092526040019020548251839083908110610a2957610a296124f3565b602090810291909101015280610a3e81612551565b91505061093b565b5060005b610a5560018561260b565b811015610c445760005b6001610a6b838761260b565b610a75919061260b565b811015610c315782610a88826001612624565b81518110610a9857610a986124f3565b6020026020010151838281518110610ab257610ab26124f3565b60200260200101511015610c1f576000838281518110610ad457610ad46124f3565b6020026020010151905083826001610aec9190612624565b81518110610afc57610afc6124f3565b6020026020010151848381518110610b1657610b166124f3565b60209081029190910101528084610b2e846001612624565b81518110610b3e57610b3e6124f3565b6020026020010181815250506000858381518110610b5e57610b5e6124f3565b6020026020010151905085836001610b769190612624565b81518110610b8657610b866124f3565b6020026020010151868481518110610ba057610ba06124f3565b73ffffffffffffffffffffffffffffffffffffffff909216602092830291909101909101528086610bd2856001612624565b81518110610be257610be26124f3565b602002602001019073ffffffffffffffffffffffffffffffffffffffff16908173ffffffffffffffffffffffffffffffffffffffff168152505050505b80610c2981612551565b915050610a5f565b5080610c3c81612551565b915050610a4a565b506000878410610c545787610c56565b835b905060008167ffffffffffffffff811115610c7357610c736125dc565b604051908082528060200260200182016040528015610c9c578160200160208202803683370190505b50905060008267ffffffffffffffff811115610cba57610cba6125dc565b604051908082528060200260200182016040528015610ce3578160200160208202803683370190505b50905060008367ffffffffffffffff811115610d0157610d016125dc565b604051908082528060200260200182016040528015610d3457816020015b6060815260200190600190039081610d1f5790505b50905060005b84811015610ef157868181518110610d5457610d546124f3565b6020026020010151848281518110610d6e57610d6e6124f3565b602002602001019073ffffffffffffffffffffffffffffffffffffffff16908173ffffffffffffffffffffffffffffffffffffffff1681525050858181518110610dba57610dba6124f3565b6020026020010151838281518110610dd457610dd46124f3565b60200260200101818152505060026000888381518110610df657610df66124f3565b602002602001015173ffffffffffffffffffffffffffffffffffffffff1673ffffffffffffffffffffffffffffffffffffffff1681526020019081526020016000208054610e4390612589565b80601f0160208091040260200160405190810160405280929190818152602001828054610e6f90612589565b8015610ebc5780601f10610e9157610100808354040283529160200191610ebc565b820191906000526020600020905b815481529060010190602001808311610e9f57829003601f168201915b5050505050828281518110610ed357610ed36124f3565b60200260200101819052508080610ee990612551565b915050610d3a565b5091985096509450505050505b9193909250565b60055473ffffffffffffffffffffffffffffffffffffffff163314610fac576040517f08c379a000000000000000000000000000000000000000000000000000000000815260206004820152602160248201527f4f6e6c79206f776e65722063616e2063616c6c20746869732066756e6374696f60448201527f6e00000000000000000000000000000000000000000000000000000000000000606482015260840161084e565b6005805491151574010000000000000000000000000000000000000000027fffffffffffffffffffffff00ffffffffffffffffffffffffffffffffffffffff909216919091179055565b600060205280600052604060002060009150905080600001549080600101549080600201549080600301549080600401549080600501805461103790612589565b80601f016020809104026020016040519081016040528092919081815260200182805461106390612589565b80156110b05780601f10611085576101008083540402835291602001916110b0565b820191906000526020600020905b81548152906001019060200180831161109357829003601f168201915b5050505050905086565b73ffffffffffffffffffffffffffffffffffffffff811660009081526002602052604090208054606091906110ee90612589565b80601f016020809104026020016040519081016040528092919081815260200182805461111a90612589565b80156111675780601f1061113c57610100808354040283529160200191611167565b820191906000526020600020905b81548152906001019060200180831161114a57829003601f168201915b50505050509050919050565b60055473ffffffffffffffffffffffffffffffffffffffff16331461121a576040517f08c379a000000000000000000000000000000000000000000000000000000000815260206004820152602160248201527f4f6e6c79206f776e65722063616e2063616c6c20746869732066756e6374696f60448201527f6e00000000000000000000000000000000000000000000000000000000000000606482015260840161084e565b60055460405173ffffffffffffffffffffffffffffffffffffffff909116904780156108fc02916000818181858888f19350505050158015611260573d6000803e3d6000fd5b50565b60038110156112ce576040517f08c379a000000000000000000000000000000000000000000000000000000000815260206004820152601260248201527f557365726e616d6520746f6f2073686f72740000000000000000000000000000604482015260640161084e565b6014811115611339576040517f08c379a000000000000000000000000000000000000000000000000000000000815260206004820152601160248201527f557365726e616d6520746f6f206c6f6e67000000000000000000000000000000604482015260640161084e565b336000908152602081905260409020600501611356828483612686565b50336000908152600260205260409020611371828483612686565b503373ffffffffffffffffffffffffffffffffffffffff167f74d8e560d2e870c35b35dc882df2a5c96e2bf1cdb5ef6dd2f9cb433c8d04885383836040516113ba9291906127a1565b60405180910390a25050565b600260205260009081526040902080546113df90612589565b80601f016020809104026020016040519081016040528092919081815260200182805461140b90612589565b80156114585780601f1061142d57610100808354040283529160200191611458565b820191906000526020600020905b81548152906001019060200180831161143b57829003601f168201915b505050505081565b60055474010000000000000000000000000000000000000000900460ff166114e4576040517f08c379a000000000000000000000000000000000000000000000000000000000815260206004820152601260248201527f47616d65206973206e6f74206163746976650000000000000000000000000000604482015260640161084e565b6000831161154e576040517f08c379a000000000000000000000000000000000000000000000000000000000815260206004820152601c60248201527f53636f7265206d7573742062652067726561746572207468616e203000000000604482015260640161084e565b620f42408311156115bb576040517f08c379a000000000000000000000000000000000000000000000000000000000815260206004820152600e60248201527f53636f726520746f6f2068696768000000000000000000000000000000000000604482015260640161084e565b60008211611625576040517f08c379a000000000000000000000000000000000000000000000000000000000815260206004820152601f60248201527f44697374616e6365206d7573742062652067726561746572207468616e203000604482015260640161084e565b6064811115611690576040517f08c379a000000000000000000000000000000000000000000000000000000000815260206004820152601b60248201527f546f6f206d616e7920706f77657275707320636f6c6c65637465640000000000604482015260640161084e565b61169b82600a6127ee565b831115611729576040517f08c379a0000000000000000000000000000000000000000000000000000000008152602060048201526024808201527f53636f726520746f6f206869676820666f722064697374616e6365207472617660448201527f656c656400000000000000000000000000000000000000000000000000000000606482015260840161084e565b336000908152602081905260408120600181015490910361179f57600380546001810182556000919091527fc2575a0e9e593c00f959f8c92f12db2869c3395a3b0502d05e2516446f71f85b0180547fffffffffffffffffffffffff000000000000000000000000000000000000000016331790555b6001810180549060006117b183612551565b9190505550828160020160008282546117ca9190612624565b92505081905550818160030160008282546117e59190612624565b909155505042600482015580546000908511156119b4575083815560405184815260019033907f2b0d241eb3606209d46ff51c48c0cd6274d32c664206ac812070267babb8af6e9060200160405180910390a260075473ffffffffffffffffffffffffffffffffffffffff16156119b457600082600501805461186790612589565b80601f016020809104026020016040519081016040528092919081815260200182805461189390612589565b80156118e05780601f106118b5576101008083540402835291602001916118e0565b820191906000526020600020905b8154815290600101906020018083116118c357829003601f168201915b505050505090508051600003611926575060408051808201909152600981527f416e6f6e796d6f7573000000000000000000000000000000000000000000000060208201525b6007546040517f55ee58cc00000000000000000000000000000000000000000000000000000000815273ffffffffffffffffffffffffffffffffffffffff909116906355ee58cc9061198090339085908b90600401612805565b600060405180830381600087803b15801561199a57600080fd5b505af11580156119ae573d6000803e3d6000fd5b50505050505b6040517fffffffffffffffffffffffffffffffffffffffff0000000000000000000000003360601b1660208201526034810186905260548101859052607481018490524260948201524360b482015260009060d401604080517fffffffffffffffffffffffffffffffffffffffffffffffffffffffffffffffe081840301815291815281516020928301206000818152600190935291205490915060ff1615611ab9576040517f08c379a000000000000000000000000000000000000000000000000000000000815260206004820152601960248201527f53657373696f6e206861736820616c7265616479207573656400000000000000604482015260640161084e565b600081815260016020818152604080842080547fffffffffffffffffffffffffffffffffffffffffffffffffffffffffffffff001684179055805160c0810182523381529182018a815290820189815260608301898152426080850190815260a08501888152600480549788018155885285517f8a35acfbc15ff81a39ae7d344fd709f28e8600b4aa8c65c6b64bfe7fe36bd19b600698890290810180547fffffffffffffffffffffffff00000000000000000000000000000000000000001673ffffffffffffffffffffffffffffffffffffffff9093169290921790915594517f8a35acfbc15ff81a39ae7d344fd709f28e8600b4aa8c65c6b64bfe7fe36bd19c86015592517f8a35acfbc15ff81a39ae7d344fd709f28e8600b4aa8c65c6b64bfe7fe36bd19d85015590517f8a35acfbc15ff81a39ae7d344fd709f28e8600b4aa8c65c6b64bfe7fe36bd19e840155517f8a35acfbc15ff81a39ae7d344fd709f28e8600b4aa8c65c6b64bfe7fe36bd19f830155517f8a35acfbc15ff81a39ae7d344fd709f28e8600b4aa8c65c6b64bfe7fe36bd1a09091015581549092909190611c6583612551565b9091555050604080518881526020810188905290810186905242606082015233907f04f4c0f5a4a2f0a08f6e3b4fd6a5abaa7af15961534922311add59aeef2e1d929060800160405180910390a2611d296040518060400160405280601381526020017f53636f7265207375626d69747465642062793a00000000000000000000000000815250336040518060400160405280600681526020017f53636f72653a00000000000000000000000000000000000000000000000000008152508a61210d565b50505050505050565b60055473ffffffffffffffffffffffffffffffffffffffff163314611dd9576040517f08c379a000000000000000000000000000000000000000000000000000000000815260206004820152602160248201527f4f6e6c79206f776e65722063616e2063616c6c20746869732066756e6374696f60448201527f6e00000000000000000000000000000000000000000000000000000000000000606482015260840161084e565b600780547fffffffffffffffffffffffff00000000000000000000000000000000000000001673ffffffffffffffffffffffffffffffffffffffff92909216919091179055565b6060600082118015611e33575060328211155b611e99576040517f08c379a000000000000000000000000000000000000000000000000000000000815260206004820152600d60248201527f496e76616c6964206c696d697400000000000000000000000000000000000000604482015260640161084e565b6004546000819003611f28576040805160008082526020820190925290611f20565b611f0d6040518060c00160405280600073ffffffffffffffffffffffffffffffffffffffff16815260200160008152602001600081526020016000815260200160008152602001600080191681525090565b815260200190600190039081611ebb5790505b509392505050565b6000838210611f375783611f39565b815b905060008167ffffffffffffffff811115611f5657611f566125dc565b604051908082528060200260200182016040528015611fd957816020015b611fc66040518060c00160405280600073ffffffffffffffffffffffffffffffffffffffff16815260200160008152602001600081526020016000815260200160008152602001600080191681525090565b815260200190600190039081611f745790505b50905060005b828110156120ac57600481611ff560018761260b565b611fff919061260b565b8154811061200f5761200f6124f3565b60009182526020918290206040805160c0810182526006909302909101805473ffffffffffffffffffffffffffffffffffffffff168352600181015493830193909352600283015490820152600382015460608201526004820154608082015260059091015460a0820152825183908390811061208e5761208e6124f3565b602002602001018190525080806120a490612551565b915050611fdf565b50949350505050565b600381815481106120c557600080fd5b60009182526020909120015473ffffffffffffffffffffffffffffffffffffffff16905081565b60006a636f6e736f6c652e6c6f679050600080835160208501845afa505050565b6121a2848484846040516024016121279493929190612844565b604080517fffffffffffffffffffffffffffffffffffffffffffffffffffffffffffffffe08184030181529190526020810180517bffffffffffffffffffffffffffffffffffffffffffffffffffffffff167f91d1112e000000000000000000000000000000000000000000000000000000001790526121a8565b50505050565b611260816120ec565b6121b9612897565b565b6000602082840312156121cd57600080fd5b5035919050565b6000602082840312156121e657600080fd5b813573ffffffffffffffffffffffffffffffffffffffff8116811461220a57600080fd5b9392505050565b6000815180845260005b818110156122375760208185018101518683018201520161221b565b5060006020828601015260207fffffffffffffffffffffffffffffffffffffffffffffffffffffffffffffffe0601f83011685010191505092915050565b86815285602082015284604082015283606082015282608082015260c060a082015260006122a660c0830184612211565b98975050505050505050565b600081518084526020808501808196508360051b8101915082860160005b858110156122fa5782840389526122e8848351612211565b988501989350908401906001016122d0565b5091979650505050505050565b606080825284519082018190526000906020906080840190828801845b8281101561235657815173ffffffffffffffffffffffffffffffffffffffff1684529284019290840190600101612324565b5050508381038285015285518082528683019183019060005b8181101561238b5783518352928401929184019160010161236f565b505084810360408601526122a681876122b2565b6000602082840312156123b157600080fd5b8135801515811461220a57600080fd5b60208152600061220a6020830184612211565b600080602083850312156123e757600080fd5b823567ffffffffffffffff808211156123ff57600080fd5b818501915085601f83011261241357600080fd5b81358181111561242257600080fd5b86602082850101111561243457600080fd5b60209290920196919550909350505050565b60008060006060848603121561245b57600080fd5b505081359360208301359350604090920135919050565b602080825282518282018190526000919060409081850190868401855b828110156122fa578151805173ffffffffffffffffffffffffffffffffffffffff16855286810151878601528581015186860152606080820151908601526080808201519086015260a0908101519085015260c0909301929085019060010161248f565b7f4e487b7100000000000000000000000000000000000000000000000000000000600052603260045260246000fd5b7f4e487b7100000000000000000000000000000000000000000000000000000000600052601160045260246000fd5b60007fffffffffffffffffffffffffffffffffffffffffffffffffffffffffffffffff820361258257612582612522565b5060010190565b600181811c9082168061259d57607f821691505b6020821081036125d6577f4e487b7100000000000000000000000000000000000000000000000000000000600052602260045260246000fd5b50919050565b7f4e487b7100000000000000000000000000000000000000000000000000000000600052604160045260246000fd5b8181038181111561261e5761261e612522565b92915050565b8082018082111561261e5761261e612522565b601f82111561268157600081815260208120601f850160051c8101602086101561265e5750805b601f850160051c820191505b8181101561267d5782815560010161266a565b5050505b505050565b67ffffffffffffffff83111561269e5761269e6125dc565b6126b2836126ac8354612589565b83612637565b6000601f84116001811461270457600085156126ce5750838201355b7fffffffffffffffffffffffffffffffffffffffffffffffffffffffffffffffff600387901b1c1916600186901b17835561279a565b6000838152602090207fffffffffffffffffffffffffffffffffffffffffffffffffffffffffffffffe0861690835b828110156127535786850135825560209485019460019092019101612733565b508682101561278e577fffffffffffffffffffffffffffffffffffffffffffffffffffffffffffffffff60f88860031b161c19848701351681555b505060018560011b0183555b5050505050565b60208152816020820152818360408301376000818301604090810191909152601f9092017fffffffffffffffffffffffffffffffffffffffffffffffffffffffffffffffe0160101919050565b808202811582820484141761261e5761261e612522565b73ffffffffffffffffffffffffffffffffffffffff841681526060602082015260006128346060830185612211565b9050826040830152949350505050565b6080815260006128576080830187612211565b73ffffffffffffffffffffffffffffffffffffffff8616602084015282810360408401526128858186612211565b91505082606083015295945050505050565b7f4e487b7100000000000000000000000000000000000000000000000000000000600052605160045260246000fdfea26469706673582212201df9e363af56b045ddb1d64528975ccc52610ac18c11e2a85c584bd66d0fe3cc64736f6c63430008130033","linkReferences":{}},"methodIdentifiers":{"MAX_SCORE()":"27ff6223","MIN_SESSION_TIME()":"dd3fc386","emergencyWithdraw()":"db2e21bc","gameActive()":"f020044f","gameSessions(uint256)":"34a8014b","getGameStats()":"1aff30dd","getPlayerStats(address)":"4fd66eae","getRecentSessions(uint256)":"f6aa2503","getTopPlayers(uint256)":"ba3c0067","getTotalPlayers()":"4529cae7","getTotalSessions()":"6073e4b7","getUsername(address)":"ce43c032","leaderboard()":"eb56b740","owner()":"8da5cb5b","playerStats(address)":"cdafbbb6","players(uint256)":"f71d96cb","setGameActive(bool)":"ccc08974","setLeaderboard(address)":"f1a2de72","setUsername(string)":"ed59313a","submitScore(uint256,uint256,uint256)":"ef2c25a4","totalGamesPlayed()":"5c492129","usedSessionHashes(bytes32)":"303c4fed","usernames(address)":"ee91877c"},"id":20}